:020000040800F2
:10000000082C0020D101000829100008FD05000877
:10001000590E00088B0200081514000800000000AB
:100020000000000000000000000000006D1000084B
:10003000B5020008000000002B1000088111000824
:10004000EB010008EB010008EB010008EB010008E0
:10005000EB010008EB010008EB010008EB010008D0
:10006000EB010008EB010008EB010008EB010008C0
:10007000EB010008EB010008EB010008EB010008B0
:10008000EB010008EB010008EB010008EB010008A0
:10009000EB010008EB010008EB010008EB01000890
:1000A000EB010008EB010008EB010008EB01000880
:1000B000EB010008EB010008EB010008EB01000870
:1000C000EB010008EB010008EB010008EB01000860
:1000D000EB010008EB010008EB010008EB01000850
:1000E000EB010008EB010008EB01000800F002F84A
:1000F00000F05EF80AA090E8000C82448344AAF164
:100100000107DA4501D100F053F8AFF2090EBAE861
:100110000F0013F0010F18BFFB1A43F0010318473B
:10012000001A0000201A000010F8013B0A4413F0E6
:10013000030408BF10F8014B1D1108BF10F8015B44
:10014000641E05D010F8016B641E01F8016BF9D133
:10015000002D15D010F8014B03F00C030C2BA1EB74
:1001600004040ABF10F8013BA4EB8314A4EB03249E
:1001700005F1010314F8016B5B1E01F8016BF9D561
:10018000914238BF10F8013BD1D3704700230024BF
:1001900000250026103A28BF78C1FBD8520728BF97
:1001A00030C148BF0B6070471FB51FBD10B510BDF3
:1001B00000F031F81146FFF7F7FF01F05FF900F0AA
:1001C0004FF803B4FFF7F2FF03BC00F057F800004C
:1001D0000948804709480047FEE7FEE7FEE7FEE7DB
:1001E000FEE7FEE7FEE7FEE7FEE7FEE70448054917
:1001F000054A064B70470000C1110008ED000008D9
:1002000008260020082C00200828002008280020AC
:10021000704770477047754600F02CF8AE460500F1
:100220006946534620F00700854618B020B5FFF711
:10023000DDFFBDE820404FF000064FF000074FF013
:1002400000084FF0000B21F00701AC46ACE8C009F4
:10025000ACE8C009ACE8C009ACE8C0098D467047FD
:1002600010B50446AFF300802046BDE81040FFF70C
:10027000A8BF000000487047A425002001491820AD
:10028000ABBEFEE726000200704700BFFEE700009D
:100290000020064908600649C1F8B4010349083145
:1002A00008600349C1F8BC0170470000B0812142D9
:1002B000008021427047000000200C4908600C4972
:1002C000C1F8AC010949103108600A490860091DEC
:1002D0000860091D086008490860091D0860091DBB
:1002E00008600649C1F8BC0170470000A001214226
:1002F000000021429C012242B08121420080214223
:1003000008B50121142000F0A1FE4FF4DC50ADF837
:10031000000003208DF8020010208DF803006946CC
:100320000D4800F0D3F803208DF8020010208DF85E
:1003300003006946094800F0C9F84FF47040ADF871
:10034000000003208DF8020010208DF8030069469C
:10035000034800F0BBF808BD000801400010014050
:10036000000C014000B50120084908600849C1F8A7
:10037000AC0106491031086006490860091D086093
:100380000549C1F8A401FFF783FF00BDA001214288
:10039000000021429C0122420000224201200A4921
:1003A00008600A49C1F8AC010749103108600849E2
:1003B0000860091D0860091D0860064908600649B3
:1003C000C1F8B80170470000A0012142000021429D
:1003D0009C012242B48121420080214200B50246A4
:1003E0000A2A6AD2DFE802F00508111A252E3A46D9
:1003F000545DFFF761FF60E0FFF75EFF01203049C9
:1004000008603049C1F8B00157E0FFF755FF0120FF
:100410002B4908602B49C1F8B4014EE0FFF74CFFAF
:100420000120274908602749C1F8B0012649086022
:1004300043E0FFF741FF0120214908602149C1F84D
:10044000B8013AE0FFF738FF01201D4908601D4957
:10045000C1F8B0011C49091D08602EE0FFF72CFF10
:100460000120174908601749C1F8B4011649091D50
:10047000086022E0FFF720FF0120114908601149C0
:10048000C1F8B001104908600E49C1F8B80114E084
:10049000FFF712FF01200A4908600A49C1F8BC01B0
:1004A0000BE0FFF709FF0120054908600549C1F885
:1004B000B00105490831086000BF00BF00BD000061
:1004C000A401224200802142B48121422DE9F04161
:1004D000024600250026002000230024002791F872
:1004E00003C00CF00F0591F803C00CF0100CBCF128
:1004F000000F03D091F802C04CEA050591F800C046
:10050000BCF1000F31D0146800202BE04FF0010C3B
:100510000CFA00F3B1F800C00CEA03069E4220D1A9
:1005200083004FF00F0C0CFA03F7BC4305FA03FCF1
:100530004CEA040491F803C0BCF1280F06D14FF037
:10054000010C0CFA00FCC2F814C00AE091F803C0D8
:10055000BCF1480F05D14FF0010C0CFA00FCC2F8B9
:1005600010C0401C0828D1D31460B1F800C0BCF101
:10057000FF0F34DD546800202EE000F1080C4FF02E
:10058000010808FA0CF3B1F800C00CEA03069E4219
:1005900021D183004FF00F0C0CFA03F7BC4305FA8E
:1005A00003FC4CEA040491F803C0BCF1280F05D108
:1005B00000F1080C08FA0CF8C2F8148091F803C096
:1005C000BCF1480F07D100F1080C4FF0010808FA00
:1005D0000CF8C2F81080401C0828CED35460BDE847
:1005E000F0810246002093680B400BB1012000E02F
:1005F00000207047416170470161704700BFFEE70E
:1006000008B50121142000F021FDE020ADF8000024
:1006100048208DF8030069460648FFF757FF102071
:10062000ADF8000048208DF8030069460248FFF746
:100630004DFF08BD000801400010014038B50446D8
:10064000082C1AD2DFE804F0041A30465C72808E5F
:1006500000F062F90120FFF7C1FE0E2035230422CD
:1006600000210090052000F017F90E201423052228
:1006700004210090104600F00FF981E000F04CF9E1
:100680000220FFF7ABFE0E2035230422002100904C
:10069000052000F001F90E201923042211460090D4
:1006A000082000F0F9F86BE000F036F90320FFF7BE
:1006B00095FE0E203523042200210090052000F035
:1006C000EBF80E201D23062204210090002000F0EC
:1006D000E3F855E000F020F90420FFF77FFE0E203C
:1006E0003523042200210090052000F0D5F80E20CB
:1006F0002323052204210090104600F0CDF83FE0AE
:1007000000F00AF90520FFF769FE0E2035230422C8
:1007100000210090052000F0BFF80E2028230622BB
:1007200004210090052000F0B7F829E000F0F4F86B
:100730000620FFF753FE30200346002211460090AA
:10074000142000F0FDF81BE000F0E6F80720FFF7AA
:1007500045FE30200346002211460090142000F090
:10076000EFF80DE000F0D8F80820FFF737FE302052
:100770000346002211460090142000F0E1F800BF6B
:1007800000BF38BD08B540F60340ADF800000320B7
:100790008DF8020010208DF8030069460848FFF725
:1007A00095FE2020ADF8000003208DF802001020F7
:1007B0008DF8030069460348FFF788FE08BD000076
:1007C000000C01400010014010B5FFF7DBFF2021B5
:1007D0001B48FFF70FFF012000F044FE20211848BE
:1007E000FFF70AFF01211748FFF704FF012000F07F
:1007F00039FE01211348FFF7FFFE012000F032FE11
:100800000021212000F064F90021BF2000F060F9F0
:100810000021062000F05CF90021132000F058F9B7
:100820000021202000F054F900F076F800210C207F
:1008300000F04EF901210348FFF7DCFE10BD000077
:1008400000100140000C014008B500F065F80C20D4
:100850000023072219460090184600F01DF80C20CE
:100860000723062204210090104600F015F84FF4EB
:100870007A7000F0D1FD00F04FF80C200D23072214
:1008800002210090002000F007F84FF42F7000F0D4
:10089000C3FD00F041F808BD2DE9F0470646884643
:1008A00091461F46DDF820A000252FE00AFB0561D8
:1008B000C8B2414600F0FEF800240BE0791901EBC4
:1008C000410104EBC101134A505C012100F000F921
:1008D000601CC4B20C2CF1DB08F10102D1B20AFB9E
:1008E0000562D0B200F0E6F80C240BE0791901EBB8
:1008F000410104EBC101074A505C012100F0E8F816
:10090000601CC4B2182CF1DB681CC5B24D45CDDBB0
:10091000BDE8F0870400002010B500210C2000F095
:10092000D7F80021802000F0D3F8002404E0012152
:10093000002000F0CDF8641CB4F5FC7FF7D310BDA7
:100940002DE9F05F81468A4693461F460A9CE117CF
:1009500004EB5171C910A4EBC10131B92046E11774
:1009600004EB5171C1F3C70807E02046E11704EB1F
:100970005171C910491C01F0FF085146484600F06A
:1009800099F8002514E000260FE00AEB0502D1B229
:1009900009EB0602D0B200F08DF805FB0761064AAC
:1009A000505C012100F094F8761CBE42EDD36D1C22
:1009B0004545E8D3BDE8F09F001A00082DE9F05F37
:1009C00081468A4693461F460A9CE11704EB517103
:1009D000C910A4EBC10131B92046E11704EB5171F4
:1009E000C1F3C70807E02046E11704EB5171C910B5
:1009F000491C01F0FF085146484600F05BF800250D
:100A000014E000260FE00AEB0502D1B209EB060262
:100A1000D0B200F04FF805FB0761064A505C012197
:100A200000F056F8761CBE42EDD36D1C4545E8D368
:100A3000BDE8F09FE01800082DE9F05F81468A4686
:100A400093461F460A9CE11704EB5171C910A4EBB1
:100A5000C10131B92046E11704EB5171C1F3C70858
:100A600007E02046E11704EB5171C910491C01F061
:100A7000FF085146484600F01DF8002514E0002606
:100A80000FE00AEB0502D1B209EB0602D0B200F08A
:100A900011F805FB0761064A505C012100F018F8C7
:100AA000761CBE42EDD36D1C4545E8D3BDE8F09FF2
:100AB000E816000870B504460D4645F040000021D8
:100AC00000F006F844F08000002100F001F870BD4D
:100AD00070B504460E4601211848FFF78BFD26B974
:100AE00002211648FFF786FD03E002211348FFF7B5
:100AF00083FD00251BE004F0800028B14FF48061E5
:100B00000E48FFF779FD04E04FF480610B48FFF7D2
:100B100071FD4FF400610948FFF76CFD6006040E9B
:100B20004FF400610548FFF767FD681CC5B2082D4A
:100B3000E1DB01210148FFF75FFD70BD000C0140C2
:100B400008B501210C2000F081FA4FF47070ADF867
:100B5000000003208DF8020010208DF80300694684
:100B60000748FFF7B3FC0320ADF800008DF8020042
:100B700010208DF8030069460248FFF7A7FC08BD66
:100B8000000C014000080140012001490860704745
:100B9000840121421C48006808B9012000E00020BF
:100BA000194908601948D0F89C0108B9012000E0F3
:100BB00000201549091D08601448D0F8A00108B9A3
:100BC000012000E000201049083108600F48D0F8EB
:100BD000A40108B9012000E000200B490C31086095
:100BE0000B48D0F8800108B9012000E00020094935
:100BF00008600748D0F8840108B9012000E000200F
:100C00000449091D086070479881214200802142F3
:100C1000000021428001214210B501201F490860D7
:100C2000642000F0F9FB00201D49C1F89801012063
:100C30001A49091D0860642000F0EEFB00201749E6
:100C4000091D08600120091D0860642000F0E4FB14
:100C5000002012490831086001201149C1F8A4019F
:100C6000642000F0D9FB00200C490C310860012001
:100C70000C49C1F88001642000F0CEFB00200A4935
:100C8000086001200749C1F88401642000F0C4FB1A
:100C900000200449C1F8840110BD00009881214260
:100CA00000802142000021428001214210B504460B
:100CB00020461B2C6AD00DDCA0F10900102835D28B
:100CC000DFE800F0AE957DC0664DC037C023ACC0F4
:100CD00093C0C07B322871D00CDC252813D004DCF3
:100CE0001D283AD0212821D121E027287CD02C288A
:100CF000F9D17BE037284AD03B282FD0432817D0A2
:100D00004B28F0D100E000BF00BF4F48006808B991
:100D1000012000E000204C490860FFF7CDFA0120D7
:100D20004A49C1F8A0014849183108608AE000BF6B
:100D300000BF4548001D006808B9012000E0002000
:100D40004149091D0860FFF7B7FA01203F49C1F882
:100D5000A0013D491C31086074E000BF00BF3A4863
:100D60000830006808B9012000E000203649083149
:100D70000860FFF7A1FA01203449C1F8A001324907
:100D8000183108603249C1F8B4015BE000BF00BF10
:100D90002D480C30006808B9012000E000202A49E5
:100DA0000C310860FFF788FA01202849C1F8A0013A
:100DB00025492031086045E000E000BF00BF25481C
:100DC000006808B9012000E0002022490860FFF710
:100DD00073FA01201D49C1F8A0011B4918310860B0
:100DE0001B49C1F8B8012DE019E000BF00BF194848
:100DF000001D006808B9012000E000201549091D08
:100E00000860FFF759FA01201049C1F8A0010E4906
:100E10001C3108600E49C1F8B80113E000BF00BFE3
:100E2000FFF7B8FEFFF748FA01200A4920310860B1
:100E30000749C1F8B00104491C3108600449C1F8F0
:100E4000B80100BF00BF10BD9881214200002142BF
:100E5000008021428001214200BFFEE72DE9F843D6
:100E6000804608F1010008281FD2DFE800F00407DF
:100E70000A0D1013171B624C642516E0614C4025C7
:100E800013E0614C8C2510E0604CCA250DE0604CED
:100E900082250AE05F4C4FF4897506E05E4C4FF402
:100EA000747502E0564C3C2500BF00BF00269DE053
:100EB0004046FFF7C3FB20215848FFF792FB18B1CB
:100EC00040215648FFF78DFB710034F8211088B29D
:100ED00000F05EFA710054F82100FFF7E7FE7100A0
:100EE000491C34F8211001EB810188B200F094FA1A
:100EF000710054F82100FFF7D9FE20214748FFF781
:100F000070FB00B978E040214448FFF76AFB00B964
:100F100072E080214148FFF764FB002865D100BFE3
:100F200000214FF0804000F07BF940213B48FFF763
:100F300058FB10B9082000F06FFA40213748FFF73E
:100F400050FB58BB002723E07900354A32F82110C6
:100F500088B200F01DFA7900314A52F82100FFF7FB
:100F6000A5FE7900491C2E4A32F8211001EB8101BF
:100F700088B200F051FA7900294A52F82100FFF7AF
:100F800095FE10212748FFF72CFB00B905E07F1CD8
:100F900005EBD571B7EB610FD6DB00BF3020034600
:100FA0000022114600901046FFF708FDFFF7B4FC41
:100FB000302003460022114600901046FFF7FEFC49
:100FC0000C202E230322322100900846FFF764FCF8
:100FD000FFF7DAFDFFF7C6F90A2000F01DFA10212D
:100FE0001048FFF7FEFA01289AD0761C05EBD57160
:100FF000B6EB610FFFF65CAF00BFBDE8F883000001
:101000000C2200205C0500205C0600208C080020DB
:10101000B40B0020840E0020CC12002000080140F8
:1010200084240020001001407047704729B1064A0F
:10103000D2690243044BDA6104E0034AD269824375
:10104000014BDA61704700000010024029B1064AE6
:1010500092690243044B9A6104E0034A9269824315
:10106000014B9A617047000000100240704710B5B4
:1010700000F002F810BD00000CB5002001900090B7
:101080003348006840F480303149086000BF304880
:10109000006800F4003000900198401C0190009816
:1010A00018B90198B0F5A06FF1D12948006800F493
:1010B000003010B10120009001E000200090009865
:1010C000012843D12348006840F0100021490860FE
:1010D0000846006820F0030008600846006840F0F9
:1010E000020008601A48406819494860084640688C
:1010F00048600846406840F48060486008464068A0
:1011000020F47C1048600846406840F4E8104860CD
:101110000846006840F08070086000BF0C48006816
:1011200000F000700028F9D00948406820F0030062
:10113000074948600846406840F00200486000BF28
:101140000348406800F00C000828F9D10CBD0000ED
:101150000010024000200240042808D14FF0E02196
:10116000096941F004014FF0E022116107E04FF0FE
:10117000E021096921F004014FF0E022116170477C
:101180007047000010B504466FF00400FFF7E4FF5D
:10119000E11704EB5171C1F3C701074A1170104602
:1011A000007800EB4001C1EBC0104FF6FF7101EA7F
:1011B000C0000249088010BD00000020020000208D
:1011C00010B51348006840F0010011490860084656
:1011D0004068104908400E494860084600680E49BA
:1011E00008400B4908600846006820F48020086029
:1011F0000846406820F4FE0048604FF41F008860F5
:10120000FFF735FF4FF000600449086010BD000093
:10121000001002400000FFF8FFFFF6FE08ED00E0BE
:1012200021B1028842F00102028004E002884FF6F8
:10123000FE731A400280704770B50024002200231C
:10124000058C4FF6FF6635400584028C8388848BBD
:101250004FF68F752C404FF6FC752C400D882C43B3
:101260004FF6FF552A400D894FF6FF7606EA052511
:101270002A434D8806EA05252A43154DA84202D087
:10128000144DA8421DD14FF2FF752A404D894FF6EB
:10129000FF7606EA05252A434FF6FF352A408D885A
:1012A00006EA05252A434EF6FF752B404DF6FF75DD
:1012B0002B408D8906EA05152B43CD8906EA0515D5
:1012C0002B4383808483CD888587028470BD000092
:1012D000002C0140003401400A460021818B4FF66A
:1012E000F773194011438183704700000022028880
:1012F0001D4B98420ED01D4B98420BD0B0F1804F41
:1013000008D01B4B984205D01A4B984202D01A4B7A
:10131000984204D14FF68F731A404B881A43174BEB
:10132000984207D0164B984204D04FF6FF431A401C
:10133000CB881A4302808B8883850B8803850A4BF0
:1013400098420BD0094B984208D00E4B984205D0DA
:101350000D4B984202D00D4B984201D10B7A038677
:101360000123838270470000002C014000340140BB
:101370000004004000080040000C00400010004045
:10138000001400400040014000440140004801407A
:1013900010B588B0044601210846FFF747FE012139
:1013A0000420FFF753FE0420ADF81C0018208DF830
:1013B0001F0003208DF81E0007A91548FFF786F8C7
:1013C0000020ADF81200ADF8144041F61F40ADF812
:1013D000100004A94FF08040FFF788FF7020ADF89F
:1013E00000000020ADF808000120ADF80200ADF8C3
:1013F000064069468007FFF71FFF0821C806FFF770
:101400006BFF01218807FFF70BFF08B010BD00003C
:101410000008014000BFFEE70146114A12884A4316
:101420004FF0E0235A6100229A611A46126942F095
:1014300001021A6100BF4FF0E022106900F00102C2
:101440001AB100F48032002AF5D04FF0E022126980
:1014500022F001024FF0E0231A6100229A617047E6
:10146000020000200146002200E0521C642AFCDB3E
:10147000002000E0401C8842FCDB704708B5482093
:10148000FFF780FE00240625FFF75AFBFFF7B8F8A8
:10149000FEF736FFFFF798F9FFF73EFA30205423A6
:1014A0000022114600901046FFF7C6FAFEF776FFBD
:1014B00000BF10211748FFF794F80128F9D027E062
:1014C00010211448FFF78DF838B9FFF7BDF9FEF782
:1014D000F3FEFFF7A1FBFFF71FFAAC4200DD00248B
:1014E000002C00DA2C462046FFF7B8FC40210A48C1
:1014F000FFF777F810B9601CC4B209E02021064854
:10150000FFF76FF810B9601EC4B201E0601CC4B2EE
:10151000D6E7000000100140000801400000000074
:101520000000002F00000007000700147F147F1444
:10153000242A7F2A12626408132336495522500058
:1015400005030000001C2241000041221C00140879
:101550003E081408083E08080000A06000080808BB
:101560000808006060000020100804023E51494550
:101570003E00427F400042615149462141454B3186
:101580001814127F1027454545393C4A4949300116
:10159000710905033649494936064949291E00366D
:1015A00036000000563600000814224100141414BE
:1015B00014140041221408020151090632495951FC
:1015C0003E7C1211127C7F494949363E41414122FD
:1015D0007F4141221C7F494949417F090909013E58
:1015E0004149497A7F0808087F00417F4100204037
:1015F000413F017F081422417F404040407F020C60
:10160000027F7F0408107F3E4141413E7F09090966
:10161000063E4151215E7F09192946464949493113
:1016200001017F01013F4040403F1F2040201F3FFC
:101630004038403F6314081463070870080761517D
:10164000494543007F414100552A552A55004141F3
:101650007F000402010204404040404000010204B7
:101660000020545454787F4844443838444444203B
:10167000384444487F3854545418087E09010218ED
:10168000A4A4A47C7F0804047800447D400040802A
:10169000847D007F1028440000417F40007C0418B6
:1016A00004787C080404783844444438FC24242416
:1016B0001818242418FC7C080404084854545420A6
:1016C000043F4440203C4040207C1C2040201C3CE7
:1016D0004030403C44281028441CA0A0A07C446416
:1016E000544C4414141414140000000000000000B2
:1016F0000000000000803088E0FCFCFEFEFEFEFEE4
:10170000FEECFCF8F0E0000000000000000000002B
:10171000000000008090B020A85410000000C01805
:101720000058206830000000401008C830F86800F9
:1017300000000000B8A8F86808E000000000000001
:101740000000000000000000003F3F3F7F5FFCF111
:10175000F7F7F17CFCE913FFFFFF9F0C000000008E
:101760000000000000000000010000010001020272
:1017700000008083E24242020200000000020001F9
:1017800001014242000000020000010002000000CE
:1017900000000000000000000000000080E0F0F801
:1017A0000F00010202020203010000031E7EFFFE81
:1017B000F8E0C00000000000000000000000000091
:1017C0000000000008043C7D6E8C7D0600000000D7
:1017D00000404B0F4C4C3F0424240000000000004C
:1017E00000000000000000000000000000E0F8FE23
:1017F0001F070100000000000000000000000000C2
:101800000000033FFFFB8FFFFEF000000000000020
:1018100000000000000000000000000000000000C8
:101820001C0C0C0C0E8686FE000000000000000060
:101830000000000000000000000000C0E0E0E0F058
:10184000F9FDFDFDF0E09060C080000000000000A8
:101850000000000000F8FCF8E7DFFFEFF7FBF08086
:101860000000000000000000E000008060008040F8
:101870000C1E9E0E0000000227070701000000C09A
:101880000000C000C000C000000000000000001FF9
:101890003F3F3F3F7F7F7F7FFFFFFFFFFC790030AF
:1018A0003030303038383C3E00FFFFFFFFFF7F7F95
:1018B0003F1F0F0F0703000000002F201F172000FD
:1018C000007D000600000800000000050000433C09
:1018D0000000000828043B002005380A0000000032
:1018E0000000FC04F4F4F4F40404FC0098B8C88C80
:1018F0008C00800808308C747438004444FC8818CC
:1019000078FC484800FC0404F4F4F4F404FCFC0003
:10191000000077F4C4C43484C4C4B7B0AFCF400F60
:101920003F307F7363C71B8F8F8834A683B4BBBBE4
:101930008F003F3F00F7343434C4243434C7C70029
:101940000000D86121313C79D9D9A5FBBBBF028702
:10195000E6603FCECF1D030999DDFE9B9B03DFDBD5
:10196000FBA4DECE04BF0000D87D18187B9F0F00BB
:1019700000003F3A1A9AC21EEDE52D233D3D1E7B25
:101980007302EE8D8DF8181D9D993F39391AFBDBD6
:10199000D923E3E7ECCD83020D3EC2422CCDC50036
:1019A0000000ED232F2F2C2F2723ED0C3971F01C75
:1019B0003E2EEFDFDF13C2D1D9DD3EDFDFFCEFCFFC
:1019C000DEDEFFFF0D2F0F0FFDFB0000E2D3130043
:1019D00000007F606F6F6F6F60607F0032721E6FFC
:1019E0006F601F0D0D7E101111116F27017D712980
:1019F0000D1E3F3F11730D0D6F0E0E0E6F0E0E007C
:101A0000FFFFFFFFFFFFFFFFFFFFFFFFFFFFFFFFE6
:101A1000FFFFFF7F7F7F3F3F3F3F1F1F1F1F0F0FB6
:101A20000F07070707030303030101010100FFFF7D
:101A3000FFFFFFFFFFFFFFFFFFFFFFFFFFFFFFFFB6
:101A40000000000080808080C0C0C0C0E0E0E0F006
:101A5000F0F0F0F8F8F8F8FCFCFCFCFE0000FFFFEA
:101A6000FFFFFFFFFFFFFFFFFFFFFFFFFFFFFFFF86
:101A70000000FFFFFFFFFFFFFFFFFFFFFFFFFFFF74
:101A8000FFFFFFFFFFFFFFFFFFFFFFFF0000FFFF64
:101A9000FFFFFFFFFFFFFFFFFFFFFFFFFFFFFFFF56
:101AA0000000FFFFFFFFFFFFFFFFFFFFFFFFFFFF44
:101AB0007F3F1F0F07070707070707070000FFFF04
:101AC000FFFF3F0F070301010000000000000001BD
:101AD0000000FFFFFFFFFFFFFFFFFFFFFFFF83008F
:101AE000000000000000000000000080C0E0FFFFD8
:101AF000FFFFE080800000000000808080C0E0F0F8
:101B0000FCFFFFFFFFFFFFFFFFFFFFFFFFFFFFFEE9
:101B1000FCFCF8F8F8F8F8FCFCFEFFFFFFFFFFFF05
:101B2000401B000800000020A42500002801000838
:101B3000B0230008A4250020640600008C010008E2
:101B400012000110070878F88800F804200EE81841
:101B50000800000F3F0F010F3F0E011A2004000084
:101B60008001310A10050E1F322201232313324057
:101B7000050808F8F8211007002020203F3F05F154
:101B80002F12311A8004212110478280185005201D
:101B9000311F0E15411A2144620004011578100D01
:101BA0008282BAAAFEAAAABEAABA82828330330966
:101BB0000A0602050508080020242C34A4FF64B49A
:101BC0002C26242004040201000F0000010206025A
:101BD0000000F090909F949494F604000806000290
:101BE0000C03200E0408101212D65A53525A56D320
:101BF000129E230F05011134200D00302EA2222247
:101C0000FB21A121302047100404080749300C06AD
:101C100000804020100884432098D9100502020358
:101C20000201120318100B8C9000C42C34F4342CD5
:101C3000C0FA10137F40BF8585BFA5C5BF0000E077
:101C40001E0848484E4801300708037F007089018C
:101C500016792C040511101010F0383009C0E0304E
:101C600098888888988E671F112014040070506926
:101C700020050818F0702F000A173028242422218C
:101C800020380048001818C0B08C60B048484C4854
:101C9000487800404E29287F76097F7F89FF782089
:101CA0000980702C2020FE20207813404201127FF2
:101CB000042660B023FC8401367CD4215D1004200E
:101CC000207F16240AE0FE204010FE1210F0EB10D8
:101CD0000A7F8040310F061921412F2408F888849B
:101CE00084F48484E2100B20110C00407F0004185F
:101CF00030242270C0630898C01222C01A306315C5
:101D00001A10055E58E85EAB1178100922120E0217
:101D10007F0E1221C128174048C83E2808DE480817
:101D2000E4000011097F030D011F00403F6F23C82D
:101D30003E031A889F200A04027F08083F4242415E
:101D4000A81330285F2388706028040818286F13B0
:101D5000131ED7140A60DE5048C0304E98209848B1
:101D60000A023F1213020A126B07D032FC0321F061
:101D70001004201C03C5180440407827140910F8EB
:101D8000F010C856D0105420050F040F3F052178DD
:101D90001005FC04FC04011105111812022F318EEC
:101DA00011D810094858407C4060584060530044A6
:101DB000013E7B0003192B4D1A03C00B06050404DA
:101DC00024243F3F24240C180B4040300C03030C08
:101DD00010204070100D8848300A0C2848E8180080
:101DE000004101127E05374040E024051214905056
:101DF0004220080020101824434001272000AC197D
:101E0000D31404FE1CD01324090F641F107F201F5D
:101E1000370833F88801151F1404000819083C0519
:101E20002020111F770313BCAA0113BC806C340B54
:101E3000203F15157F412F192741C8361053158CA7
:101E4000280A601F04186339252328653409FC24F7
:101E500024E424243C04E010092111010F11214144
:101E6000718F2016F65898F07ED0505048004030C0
:101E70002F308F43221F0C3242303406044484C476
:101E80002451100A601F100C03021C07384843FA43
:101E900022011E3E2B0453070801180F0F00222EAB
:101EA000AAFFAAAAC0BE8ABA0909E9320A011DAC72
:101EB000031C0510FC0380DB033EABD8031E0FBBE5
:101EC000031C04020A0E6303240D013800FF88641A
:101ED0009C6704F44436811D760410060403000355
:101EE0000407200402BFEAD9180D3E0302040209C8
:101EF000080906040609093C0D4444FFA44AAE9AA9
:101F0000BE89BDC948BC03130F0A6521381010F9FA
:101F10002AE828106C8B780C080C03000403411E7F
:101F200001080425F913FE100349D01004213F21B4
:101F30000345E126FCD236FC0823007FCB31172471
:101F4000098040304C8A884838681C060008047EA6
:101F5000433303D37E000172330A15D6530032088F
:101F60009219081E151A035264202108521210D229
:101F70001308012640D21048021D1240520B3802AD
:101F8000150E806160520D40520D786108E13801F4
:101F90001A80A188521408521208D20F08921228EF
:101FA00002116430025D14580116080112C0A568C0
:101FB000E198961BF8021132486120521F30021539
:101FC0001F18011230D23248021196689614A0A54B
:101FD000609214A00112D8E1B861985225085229E4
:101FE000B061089225C00211649002151FC0A15073
:101FF0005E963603926468021115E861385296289D
:10200000D21908011A38522138922110A1F8E17032
:10201000521D30DA1D40D61230921840A558012AC0
:10202000C8025132C0021D1208021D10D09E1B08AA
:1020300004D23208011618A1089212480E114BB8AA
:1020400004D214C052142852142802191460D21950
:1020500008DE326805E9C8AD1005012AD0027164B6
:10206000D0062D12989E139004D29610ADE0052153
:10207000188B2C01D0DE15A8030E1115380621305F
:102080009E1B1003AD7004D21D906DF0052D38031A
:102090000A19C8805213A8D20DD0ADF80696C858B8
:1020A000921360012AE0012EE8DE1D1805061112C8
:1020B000609E32680702190EE0021132C09A0B507E
:1020C0002558ED8803560EC0A110A1385610900E69
:1020D0001118E803051AF821580714900150021945
:1020E00064E0DE12C8059E181008AD3808ED7808C7
:1020F00021C883BC02C0D20AC8A138AD28045E2C16
:102100005806522C1002153218AD30059E64D005C9
:1021100092254892C820D22550DE2500060E151DB6
:1021200040049E1D7805A9D80D16F804E138D21D8B
:102130008002152C08A1680B10C800C00112900184
:102140001210D62548963250012258051608ED0087
:1021500005DE155805561570051EC0E5B00116C000
:10216000A1E096C828051670012E50E590D625E806
:10217000DA3230051E88D225A8062525A86104DAA2
:102180003BB80596480916C8054240061D96980DAD
:102190001AA003091EB8DE21280AE110015E300DE5
:1021A0001240075E0C580AD20C400172C09E12E029
:1021B0000D6D7806EDE80D5E1980060E1519080400
:1021C00005BA70AD3004A530D61B500E111B700A35
:1021D0000D12B809ADC80906151958520C100E1188
:1021E0000C880BDE1028050AFF1BD809FFD805371D
:1021F00070E9B8A998D21010DE15A0125E21B80DB2
:102200000E191B8803A5986D28030E150018069E4D
:1022100000B009D24B380D1298090E151B90100111
:1022200026400D1AE807013A80DE155813E538926A
:102230001BE80172F0ED4807016EF09E1B080EA529
:1022400008ED900BEDC0050D22F80BDE641008A11F
:1022500068DA1BB00E151DA008015AA0ED1803ED99
:10226000C805021164B802111D900D128813ED40CB
:10227000160E1118B0100E114B48100E1510181133
:10228000024915700D1A4813D61B00017EE0DE14BA
:10229000E0160E151810150E111578140516D80134
:1022A00016800D1238109E0010050FFFB004300389
:1022B0000DFF30030DCE30030E1518601502191DE9
:1022C000200D12D015DE1330140E1113301301122D
:1022D00078024113705E4B30150E1519D8130E118C
:1022E000321813017EE00D16C01BDE18F816DE183A
:1022F000D814ED70140E111DF0150D1A60170D1E77
:1023000030100E112118130D129008015E786D38EF
:102310000AED301A0E1100141A0E191D2C140E1D80
:10232000193405011A280E1D21DC1002611DEC0E66
:1023300015183019013A08021119F40E1518580C25
:102340000516D81E4642221EF48817523F08523501
:1023500008522F08522920524B105223105243107A
:10236000521F40523B08523718521A5052321052E4
:102370001758522C10521460522708522518521127
:1023800068522110520F68521D08521B18520C68D7
:10239000521810520B685215105209685213085205
:1023A0001260521058520E08D20D40D20A4000005E
:04000005080000ED02
:00000001FF
